:030000000203C335
:0C03C300787FE4F6D8FD75813B02040A47
:0A057D00C0F9A4B0999282F88090B2
:1004A400C180C101012300012600012800012A00A6
:1004B400012500012900012100012200013A000167
:1004C4003B00012400012700023800000230000034
:1004D400023600000234000002320019022B00022E
:0704E400022E0011012D00A2
:1004EC00EF3395E0FE747D2FF58274053EF583E4C1
:0504FC0093F5807F056F
:10050100AD071FED600BE4FEEEC3947150F20E8057
:01051100F7F2
:0105120022C6
:03000B0002000EE2
:10000E00C0E0C0F0C0D075D000C000C004C005C0B4
:10001E0006C007758C4C758A000539E539700205E6
:10002E0038E52F5403700EAE2EAF2FFC7D641204F4
:10003E004FED4C700FAE2EAF2F7C017D9012044F02
:10004E00ED4C7004D2018002C201E53964144538CA
:10005E00700CF538F5390531E53170020530E531B2
:10006E00643C4530700CF530F5310537E5377002DC
:10007E000536E537643C4536700CF536F5370535F3
:10008E00E53570020534E535641845347014F534E1
:10009E00F535F536F537F530F5310533E5337002C4
:1000AE000532300110E52C6402452B7008E53364EF
:1000BE001E4532601320011EE52C6402452B70167E
:1000CE00E533641D4532700E753200753301052C13
:1000DE00E52C7002052BE52C6401452B6030E52CD8
:1000EE006403452B6028E52C6405452B6020E52C28
:1000FE006407452B6018E52C6408452B6010E52C31
:10010E00640A452B6008E52C640C452B7015E5330D
:10011E0064204532700DF532753301052CE52C70D7
:10012E0002052BE52C6404452B6018E52C6406456E
:10013E002B6010E52C6409452B6008E52C640B45FB
:10014E002B7015E533641F4532700DF53275330192
:10015E00052CE52C7002052BE52C640D452B700E3D
:10016E00052FE52F7002052E752B00752C01AE3074
:10017E00AF317C007D0A12044F8D26AE30AF317C3C
:10018E00007D0A12044F8F23AE36AF377C007D0AF6
:10019E0012044F8D2AAE36AF377C007D0A12044F03
:1001AE008F28AE34AF357C007D0A12044F8D29AEF8
:1001BE0034AF357C007D0A12044F8F25AE32AF333B
:1001CE007C007D0A12044F8D27AE32AF337C007D4A
:1001DE000A12044F8F24AE2BAF2C7C007D0A120422
:1001EE004F8D3BAE2BAF2C7C007D0A12044F8F3A05
:1001FE00AE2EAF2F7C007D0A12044F8D22AE2EAF95
:10020E002F7C007D0A12044F8F21D007D006D00517
:0B021E00D004D000D0D0D0F0D0E032EF
:03000300020006F2
:03000600B2003213
:1002290020906AC2AFE4F530F53112030620912B14
:100239007F0A120501D2AF209121E4F530F531058D
:1002490037E5377002053612030620910EE537644B
:100259003C453670F5F536F53780EF2092CC7F0AAC
:10026900120501D2AF2092C2E4F530F531E5371518
:1002790037700215361203062092AFE537B4FFF83E
:10028900E536B4FFF375360075373B80EB20936C88
:10029900C2AFE4F530F53112030620912B7F0A1223
:1002A9000501D2AF209121E4F530F5310535E53569
:1002B9007002053412030620910EE53564184534A1
:1002C90070F5F534F53580EF2092CC7F0A120501DF
:1002D900D2AF2092C2E4F530F531E535153570021B
:1002E9001534209212E535B4FFF8E534B4FFF375FF
:0D02F900340075351780EB120306809B2240
:10053900E53745367015C3E531940AE53094005026
:0E0549000AC2977F0A120501D29722D297228A
:10051300E5354534701DE537640245367015C3E58E
:1005230031940FE5309400500AC2977F0A120501F7
:06053300D29722D29722AC
:1003060030005B75A080AF261204ECE4F5A075A062
:1003160040AF231204ECE4F5A075A0207580BF7FE2
:1003260005120501E4F5A075A010AF2A1204ECE44D
:10033600F5A075A008AF281204ECE4F5A075A0049A
:100346007580BF7F05120501E4F5A075A002AF29EF
:100356001204ECE4F5A075A001AF250203BC75A05C
:1003660080AF271204ECE4F5A075A040AF24120478
:10037600ECE4F5A075A0207580BF7F05120501E4A9
:10038600F5A075A010AF3B1204ECE4F5A075A0082B
:10039600AF3A1204ECE4F5A075A0047580BF7F05A2
:1003A600120501E4F5A075A002AF221204ECE4F5F3
:0D03B600A075A001AF211204ECE4F5A02217
:10056B00758901758C4CE4F58AD2AFD2A9D28CC2B5
:02057B00B922A3
:09058700D2AFD2A8D288C2B8227A
:1005570012056B12058712030612022912053912BA
:04056700051380F206
:1003CF00020557E493A3F8E493A34003F68001F2E8
:1003DF0008DFF48029E493A3F85407240CC8C3332F
:1003EF00C4540F4420C8834004F456800146F6DFFE
:1003FF00E4800B01020408102040809004A4E47EE6
:10040F00019360BCA3FF543F30E509541FFEE493F2
:10041F00A360010ECF54C025E060A840B8E493A3B9
:10042F00FAE493A3F8E493A3C8C582C8CAC583CAE4
:10043F00F0A3C8C582C8CAC583CADFE9DEE780BE9C
:0104EB000010
:10044F00BC000BBE0029EF8DF084FFADF022E4CC91
:10045F00F875F008EF2FFFEE33FEEC33FCEE9DEC5A
:10046F00984005FCEE9DFE0FD5F0E9E4CEFD22EDA0
:10047F00F8F5F0EE8420D21CFEADF075F008EF2FEA
:10048F00FFED33FD4007985006D5F0F222C398FDDB
:05049F000FD5F0EA2278
:00000001FF
