:0300000002036098
:0C036000787FE4F6D8FD75811C0203A72D
:10041300C0F9A4B0999282F88090FF8E86FEFDFB0E
:05042300F7EFDFBF7FD1
:06000300011500011300CD
:10042800758901758CF8758A30D28CD2A9D2AF2221
:0C043800EF4E6007EF1F70F81E80F522E9
:10000E0020B3417FF47E0112043820B3340515E588
:10001E0015B40703E4F515E515B401027C04E515E6
:10002E00B402027C02E515B40302E4FCE515B40447
:10003E00027C04E515B405027C02E515B40602E463
:10004E00FC30B3FD20B57CE51560787F887E1312F9
:10005E00043820B56E740C2CF8E675F00AA4FF7403
:10006E000D2CF8E62FFD0DBD180DE515640360058A
:10007E00E515B40502E4FDBD3C13E5156401600B06
:10008E00E51564026005E515B40402E4FDE51514FA
:10009E00601914601224FE601A1460131460182480
:1000AE000370208D0B801C8D1780188D1480148D7D
:1000BE001680108D12800CE51370047F0180027F74
:1000CE00008F1330B403020160E515700302016066
:1000DE007F887E1312043820B478740C2CF8E675E1
:1000EE00F00AA4FF740D2CF8E62FFD1DC3ED6480FD
:1000FE009480500DE51564036005E515B405027D89
:10010E0017C3ED648094805013E5156401600BE510
:10011E001564026005E515B404027D3BE515146017
:10012E001914601224FE601A14601314601824034C
:10013E0070208D0B801C8D1780188D1480148D16D9
:10014E0080108D12800CE51370047F0180027F00F9
:10015E008F1320B23EE4F515E5137005750C0B8078
:10016E0003750C0C750D0AE51275F00A8485F011F5
:10017E00E51275F00A84F510E51675F00A8485F01F
:10018E000FE51675F00A84F50EE513B40105D29746
:03019E00E4F50A7B
:0101A100223B
:1002AA007580FF30B50320B404E4FF8007E50875C4
:1002BA00F0FFA4FFE51C90042093F5A0E515B40710
:1002CA000040030203559002D7F82828730202EC73
:1002DA000202EE0202F902030802031502032202D5
:1002EA0003358043E51CC39404740C40548045E5EF
:1002FA001C6402602EE51CB4030280278029E51CD9
:10030A00D39401740C5002802B8036E51CC39404EC
:10031A00740C4002801E8029E51C64026005E51CFD
:10032A00B40304740C800D740C8016E51CD394017C
:10033A00740C500D251CF8E6900413934FF5808039
:10034A000A251CF8E690041393F580051CE51CB4F5
:05035A000603E4F51CA0
:01035F00227B
:03000B000201A24D
:1001A200C0E0C0F0C083C082C0D075D000C000C023
:0101B2000745
:1001B300758CF8758A301202AA051BE51B700205BF
:1001C3001AE515601930B30630B50320B403750979
:1001D30000E509C3940A4006751500750900E51B7F
:1001E30064FA451A600302029BF51AF51BE50870D1
:1001F300047F0180027F008F080519E5197002054D
:1002030018640245187024F518F51905090514E555
:1002130014B43C177514000517E517B43C0D751796
:1002230000050BE50BB41803750B00E515D3940318
:100233005035E51475F00A8485F011E51475F00A5C
:1002430084F510E51775F00A8485F00FE51775F04E
:100253000A84F50EE50B75F00A8485F00DE50B7540
:10026300F00A84F50C8031E5137005750C0B8003DF
:10027300750C0C750D0AE51275F00A8485F011E50D
:100283001275F00A84F510E51675F00A8485F00FEF
:08029300E51675F00A84F50E72
:0F029B00D007D000D0D0D082D083D0F0D0E032C6
:1003EC0012042812000EE513B401F8E5176512602B
:1003FC0003750A01E50BB516EAE517B512E5E50A32
:07040C00B401E0C29780DC9F
:10036C000203ECE493A3F8E493A34003F68001F2B8
:10037C0008DFF48029E493A3F85407240CC8C33392
:10038C00C4540F4420C8834004F456800146F6DF61
:10039C00E4800B0102040810204080900003E47EEE
:1003AC00019360BCA3FF543F30E509541FFEE49356
:1003BC00A360010ECF54C025E060A840B8E493A31D
:1003CC00FAE493A3F8E493A3C8C582C8CAC583CA48
:1003DC00F0A3C8C582C8CAC583CADFE9DEE780BE00
:0100090000F6
:00000001FF
