:030000000203E315
:0C03E300787FE4F6D8FD75812202042A20
:10053C00C0F9A4B0999282F88090FF8E86FEFDFBE4
:05054C00F7EFDFBF7FA7
:06000300011700011400CA
:10052200758901758CF8758A30D28CD2A9758D3C8B
:0A053200758BB0C28ED2ABD2AF229F
:040551007F887E130E
:0C055500EF4E6007EF1F70F81E80F522CB
:10001E0020B33D12055120B3340517E517B408037C
:10002E00E4F517E517B401027C04E517B402027C6F
:10003E0002E517B40302E4FCE517B404027C04E500
:10004E0017B405027C02E517B40602E4FC30B3FDDA
:10005E0030B4030200FBE51770030200FB120551DA
:10006E0030B4030200FB740C2CF8E675F00AA4FF02
:10007E00740D2CF8E62FFD0DBD180DE51764036009
:10008E0005E517B40502E4FDBD3C13E517640160F8
:10009E000BE51764026005E517B40402E4FDE517ED
:1000AE0014B4070050479000C275F003A4C5832511
:1000BE00F0C583730200D70200DB0200DF0200E30B
:1000CE000200E70200EB0200F98D1580208D1980E9
:1000DE001C8D0B80188D1280148D188010E51470F5
:1000EE00047F0180027F008F148002B28E30B50330
:1000FE000201A9E51770030201A912055130B503DB
:10010E000201A9740C2CF8E675F00AA4FF740D2CEC
:10011E00F8E62FFD1DC3ED64809480500DE5176445
:10012E00036005E517B405027D17C3ED6480948066
:10013E005013E5176401600BE51764026005E517BF
:10014E00B404027D3BE51714B40700504E900169CC
:10015E0075F003A4C58325F0C5837302017E0201E9
:10016E008202018602018A02018E0201920201A020
:10017E008D1580278D1980238D0B801F8D12801B6E
:10018E008D188017E51470047F0180027F008F1494
:10019E008009C28EE4F516F513F51A20B23EE4F589
:1001AE0017E5147005750C0B8003750C0C750D0A94
:1001BE00E51875F00A84F50EE51875F00A8485F0D9
:1001CE000FE51275F00A84F510E51275F00A8485B4
:0C01DE00F011E514B40105D297E4F50A15
:0101EA0022F2
:100328007580FF30B40320B504E4FF8007E5087545
:10033800F0FFA4FFE52290054993F5A0E517B4085E
:100348000040030203D8900355F828287302036D70
:1003580002036F02037A0203890203960203A302CF
:1003680003B402036D805DE522C39404740C405607
:100378008043E5226402602EE522B40302802780D0
:1003880043E522D39401740C500280298038E52279
:10039800C39404740C4002801C802BE52264026024
:1003A80005E522B40304740C800B8018E522D3946D
:1003B80001740C500D2522F8E690053C934FF5800A
:1003C800800E8002740C2522F8E690053C93F58097
:0A03D8000522E522B40603E4F52235
:0103E20022F8
:03000B000201EB04
:1001EB00C0E0C0F0C083C082C0D075D000C000C0DA
:0101FB0007FC
:1001FC00758CF8758A30120328051EE51E700205F1
:10020C001DE517601D6407601930B30630B4032078
:10021C00B503750900E509C3940A40067517007506
:10022C000900E51E64FA451D6003020319F51DF56E
:10023C001EE50870047F0180027F008F08051CE515
:10024C001C7002051B6402451B7024F51BF51C0574
:10025C00090515E515B43C177515000519E519B414
:10026C003C0D751900050BE50BB41803750B00E577
:10027C0017D39403502EE50B75F00A84F50CE50B9F
:10028C0075F00A8485F00DE51975F00A84F50EE514
:10029C001975F00A8485F00FE51575F00A84F510D0
:1002AC00E515802AE5147005750C0B8003750C0C94
:1002BC00750D0AE51875F00A84F50EE51875F00A47
:1002CC008485F00FE51275F00A84F510E51275F0CF
:1002DC000A8485F011E517B40733E51675F00A8426
:1002EC00F50CE51675F00A8485F00DE51375F00A2A
:1002FC0084F50EE51375F00A8485F00FE51A75F098
:0D030C000A84F510E51A75F00A8485F011D9
:0F031900D007D000D0D0D082D083D0F0D0E03247
:03001B0002046F6D
:10046F00C0E0C0F0C083C082C0D075D000C000C053
:01047F000775
:10048000758D3C758BB01203280521E5217002059E
:1004900020640245207022F520F521051AE51AB4E2
:1004A0006417751A000513E513B43C0D75130005A8
:1004B00016E516B43C03751600E51675F00A84F5CA
:1004C0000CE51675F00A8485F00DE51375F00A84C5
:1004D000F50EE51375F00A8485F00FE51A75F00A3C
:0C04E00084F510E51A75F00A8485F0110F
:0F04EC00D007D000D0D0D082D083D0F0D0E03273
:1004FB0012052212001EE514B401F8E5196512600D
:10050B0003750A01E50BB518EAE519B512E5E50A1D
:07051B00B401E0C29780DC8F
:1003EF000204FBE493A3F8E493A34003F68001F225
:1003FF0008DFF48029E493A3F85407240CC8C3330F
:10040F00C4540F4420C8834004F456800146F6DFDD
:10041F00E4800B0102040810204080900003E47E6A
:10042F00019360BCA3FF543F30E509541FFEE493D2
:10043F00A360010ECF54C025E060A840B8E493A399
:10044F00FAE493A3F8E493A3C8C582C8CAC583CAC4
:10045F00F0A3C8C582C8CAC583CADFE9DEE780BE7C
:0100090000F6
:00000001FF
